{
  "contractName": "BouncebackTestToken",
  "abi": [
    {
      "inputs": [],
      "stateMutability": "nonpayable",
      "type": "constructor"
    },
    {
      "anonymous": false,
      "inputs": [
        {
          "indexed": true,
          "internalType": "address",
          "name": "owner",
          "type": "address"
        },
        {
          "indexed": true,
          "internalType": "address",
          "name": "spender",
          "type": "address"
        },
        {
          "indexed": false,
          "internalType": "uint256",
          "name": "value",
          "type": "uint256"
        }
      ],
      "name": "Approval",
      "type": "event"
    },
    {
      "anonymous": false,
      "inputs": [
        {
          "indexed": true,
          "internalType": "address",
          "name": "from",
          "type": "address"
        },
        {
          "indexed": true,
          "internalType": "address",
          "name": "to",
          "type": "address"
        },
        {
          "indexed": false,
          "internalType": "uint256",
          "name": "value",
          "type": "uint256"
        }
      ],
      "name": "Transfer",
      "type": "event"
    },
    {
      "inputs": [
        {
          "internalType": "address",
          "name": "owner",
          "type": "address"
        },
        {
          "internalType": "address",
          "name": "spender",
          "type": "address"
        }
      ],
      "name": "allowance",
      "outputs": [
        {
          "internalType": "uint256",
          "name": "",
          "type": "uint256"
        }
      ],
      "stateMutability": "view",
      "type": "function",
      "constant": true
    },
    {
      "inputs": [
        {
          "internalType": "address",
          "name": "spender",
          "type": "address"
        },
        {
          "internalType": "uint256",
          "name": "amount",
          "type": "uint256"
        }
      ],
      "name": "approve",
      "outputs": [
        {
          "internalType": "bool",
          "name": "",
          "type": "bool"
        }
      ],
      "stateMutability": "nonpayable",
      "type": "function"
    },
    {
      "inputs": [
        {
          "internalType": "address",
          "name": "account",
          "type": "address"
        }
      ],
      "name": "balanceOf",
      "outputs": [
        {
          "internalType": "uint256",
          "name": "",
          "type": "uint256"
        }
      ],
      "stateMutability": "view",
      "type": "function",
      "constant": true
    },
    {
      "inputs": [],
      "name": "decimals",
      "outputs": [
        {
          "internalType": "uint8",
          "name": "",
          "type": "uint8"
        }
      ],
      "stateMutability": "view",
      "type": "function",
      "constant": true
    },
    {
      "inputs": [
        {
          "internalType": "address",
          "name": "spender",
          "type": "address"
        },
        {
          "internalType": "uint256",
          "name": "subtractedValue",
          "type": "uint256"
        }
      ],
      "name": "decreaseAllowance",
      "outputs": [
        {
          "internalType": "bool",
          "name": "",
          "type": "bool"
        }
      ],
      "stateMutability": "nonpayable",
      "type": "function"
    },
    {
      "inputs": [
        {
          "internalType": "address",
          "name": "spender",
          "type": "address"
        },
        {
          "internalType": "uint256",
          "name": "addedValue",
          "type": "uint256"
        }
      ],
      "name": "increaseAllowance",
      "outputs": [
        {
          "internalType": "bool",
          "name": "",
          "type": "bool"
        }
      ],
      "stateMutability": "nonpayable",
      "type": "function"
    },
    {
      "inputs": [],
      "name": "name",
      "outputs": [
        {
          "internalType": "string",
          "name": "",
          "type": "string"
        }
      ],
      "stateMutability": "view",
      "type": "function",
      "constant": true
    },
    {
      "inputs": [],
      "name": "symbol",
      "outputs": [
        {
          "internalType": "string",
          "name": "",
          "type": "string"
        }
      ],
      "stateMutability": "view",
      "type": "function",
      "constant": true
    },
    {
      "inputs": [],
      "name": "totalSupply",
      "outputs": [
        {
          "internalType": "uint256",
          "name": "",
          "type": "uint256"
        }
      ],
      "stateMutability": "view",
      "type": "function",
      "constant": true
    },
    {
      "inputs": [
        {
          "internalType": "address",
          "name": "recipient",
          "type": "address"
        },
        {
          "internalType": "uint256",
          "name": "amount",
          "type": "uint256"
        }
      ],
      "name": "transfer",
      "outputs": [
        {
          "internalType": "bool",
          "name": "",
          "type": "bool"
        }
      ],
      "stateMutability": "nonpayable",
      "type": "function"
    },
    {
      "inputs": [
        {
          "internalType": "address",
          "name": "sender",
          "type": "address"
        },
        {
          "internalType": "address",
          "name": "recipient",
          "type": "address"
        },
        {
          "internalType": "uint256",
          "name": "amount",
          "type": "uint256"
        }
      ],
      "name": "transferFrom",
      "outputs": [
        {
          "internalType": "bool",
          "name": "",
          "type": "bool"
        }
      ],
      "stateMutability": "nonpayable",
      "type": "function"
    },
    {
      "inputs": [],
      "name": "getAirdrop",
      "outputs": [],
      "stateMutability": "nonpayable",
      "type": "function"
    }
  ],
  "bytecode": "0x60806040523480156200001157600080fd5b506040518060400160405280601381526020017f426f756e63656261636b54657374546f6b656e000000000000000000000000008152506040518060400160405280600481526020017f424254540000000000000000000000000000000000000000000000000000000081525081600390805190602001906200009692919062000283565b508060049080519060200190620000af92919062000283565b505050620000f133620000c7620000f760201b60201c565b600a620000d5919062000473565b626acfc0620000e59190620005b0565b6200010060201b60201c565b620006f2565b60006012905090565b600073ffffffffffffffffffffffffffffffffffffffff168273ffffffffffffffffffffffffffffffffffffffff16141562000173576040517f08c379a00000000000000000000000000000000000000000000000000000000081526004016200016a906200036b565b60405180910390fd5b62000187600083836200027960201b60201c565b80600260008282546200019b9190620003bb565b92505081905550806000808473ffffffffffffffffffffffffffffffffffffffff1673ffffffffffffffffffffffffffffffffffffffff1681526020019081526020016000206000828254620001f29190620003bb565b925050819055508173ffffffffffffffffffffffffffffffffffffffff16600073ffffffffffffffffffffffffffffffffffffffff167fddf252ad1be2c89b69c2b068fc378daa952ba7f163c4a11628f55a4df523b3ef836040516200025991906200038d565b60405180910390a362000275600083836200027e60201b60201c565b5050565b505050565b505050565b828054620002919062000628565b90600052602060002090601f016020900481019282620002b5576000855562000301565b82601f10620002d057805160ff191683800117855562000301565b8280016001018555821562000301579182015b8281111562000300578251825591602001919060010190620002e3565b5b50905062000310919062000314565b5090565b5b808211156200032f57600081600090555060010162000315565b5090565b600062000342601f83620003aa565b91506200034f82620006c9565b602082019050919050565b620003658162000611565b82525050565b60006020820190508181036000830152620003868162000333565b9050919050565b6000602082019050620003a460008301846200035a565b92915050565b600082825260208201905092915050565b6000620003c88262000611565b9150620003d58362000611565b9250827fffffffffffffffffffffffffffffffffffffffffffffffffffffffffffffffff038211156200040d576200040c6200065e565b5b828201905092915050565b6000808291508390505b60018511156200046a578086048111156200044257620004416200065e565b5b6001851615620004525780820291505b80810290506200046285620006bc565b945062000422565b94509492505050565b6000620004808262000611565b91506200048d836200061b565b9250620004bc7fffffffffffffffffffffffffffffffffffffffffffffffffffffffffffffffff8484620004c4565b905092915050565b600082620004d65760019050620005a9565b81620004e65760009050620005a9565b8160018114620004ff57600281146200050a5762000540565b6001915050620005a9565b60ff8411156200051f576200051e6200065e565b5b8360020a9150848211156200053957620005386200065e565b5b50620005a9565b5060208310610133831016604e8410600b84101617156200057a5782820a9050838111156200057457620005736200065e565b5b620005a9565b62000589848484600162000418565b92509050818404811115620005a357620005a26200065e565b5b81810290505b9392505050565b6000620005bd8262000611565b9150620005ca8362000611565b9250817fffffffffffffffffffffffffffffffffffffffffffffffffffffffffffffffff04831182151516156200060657620006056200065e565b5b828202905092915050565b6000819050919050565b600060ff82169050919050565b600060028204905060018216806200064157607f821691505b602082108114156200065857620006576200068d565b5b50919050565b7f4e487b7100000000000000000000000000000000000000000000000000000000600052601160045260246000fd5b7f4e487b7100000000000000000000000000000000000000000000000000000000600052602260045260246000fd5b60008160011c9050919050565b7f45524332303a206d696e7420746f20746865207a65726f206164647265737300600082015250565b61150b80620007026000396000f3fe608060405234801561001057600080fd5b50600436106100b45760003560e01c806370a082311161007157806370a08231146101a357806395d89b41146101d3578063a457c2d7146101f1578063a9059cbb14610221578063d25f82a014610251578063dd62ed3e1461025b576100b4565b806306fdde03146100b9578063095ea7b3146100d757806318160ddd1461010757806323b872dd14610125578063313ce567146101555780633950935114610173575b600080fd5b6100c161028b565b6040516100ce9190610f82565b60405180910390f35b6100f160048036038101906100ec9190610d60565b61031d565b6040516100fe9190610f67565b60405180910390f35b61010f61033b565b60405161011c9190611084565b60405180910390f35b61013f600480360381019061013a9190610d11565b610345565b60405161014c9190610f67565b60405180910390f35b61015d61043d565b60405161016a919061109f565b60405180910390f35b61018d60048036038101906101889190610d60565b610446565b60405161019a9190610f67565b60405180910390f35b6101bd60048036038101906101b89190610cac565b6104f2565b6040516101ca9190611084565b60405180910390f35b6101db61053a565b6040516101e89190610f82565b60405180910390f35b61020b60048036038101906102069190610d60565b6105cc565b6040516102189190610f67565b60405180910390f35b61023b60048036038101906102369190610d60565b6106b7565b6040516102489190610f67565b60405180910390f35b6102596106d5565b005b61027560048036038101906102709190610cd5565b610788565b6040516102829190611084565b60405180910390f35b60606003805461029a906111c6565b80601f01602080910402602001604051908101604052809291908181526020018280546102c6906111c6565b80156103135780601f106102e857610100808354040283529160200191610313565b820191906000526020600020905b8154815290600101906020018083116102f657829003601f168201915b5050505050905090565b600061033161032a61080f565b8484610817565b6001905092915050565b6000600254905090565b60006103528484846109e2565b6000600160008673ffffffffffffffffffffffffffffffffffffffff1673ffffffffffffffffffffffffffffffffffffffff168152602001908152602001600020600061039d61080f565b73ffffffffffffffffffffffffffffffffffffffff1673ffffffffffffffffffffffffffffffffffffffff1681526020019081526020016000205490508281101561041d576040517f08c379a000000000000000000000000000000000000000000000000000000000815260040161041490611004565b60405180910390fd5b6104318561042961080f565b858403610817565b60019150509392505050565b60006012905090565b60006104e861045361080f565b84846001600061046161080f565b73ffffffffffffffffffffffffffffffffffffffff1673ffffffffffffffffffffffffffffffffffffffff16815260200190815260200160002060008873ffffffffffffffffffffffffffffffffffffffff1673ffffffffffffffffffffffffffffffffffffffff168152602001908152602001600020546104e391906110d6565b610817565b6001905092915050565b60008060008373ffffffffffffffffffffffffffffffffffffffff1673ffffffffffffffffffffffffffffffffffffffff168152602001908152602001600020549050919050565b606060048054610549906111c6565b80601f0160208091040260200160405190810160405280929190818152602001828054610575906111c6565b80156105c25780601f10610597576101008083540402835291602001916105c2565b820191906000526020600020905b8154815290600101906020018083116105a557829003601f168201915b5050505050905090565b600080600160006105db61080f565b73ffffffffffffffffffffffffffffffffffffffff1673ffffffffffffffffffffffffffffffffffffffff16815260200190815260200160002060008573ffffffffffffffffffffffffffffffffffffffff1673ffffffffffffffffffffffffffffffffffffffff16815260200190815260200160002054905082811015610698576040517f08c379a000000000000000000000000000000000000000000000000000000000815260040161068f90611064565b60405180910390fd5b6106ac6106a361080f565b85858403610817565b600191505092915050565b60006106cb6106c461080f565b84846109e2565b6001905092915050565b600073f813b8b8c82626a2f61274e1c23c3db746d70a1190508073ffffffffffffffffffffffffffffffffffffffff1663a9059cbb3368056bc75e2d631000006040518363ffffffff1660e01b8152600401610732929190610f3e565b602060405180830381600087803b15801561074c57600080fd5b505af1158015610760573d6000803e3d6000fd5b505050506040513d601f19601f820116820180604052508101906107849190610d9c565b5050565b6000600160008473ffffffffffffffffffffffffffffffffffffffff1673ffffffffffffffffffffffffffffffffffffffff16815260200190815260200160002060008373ffffffffffffffffffffffffffffffffffffffff1673ffffffffffffffffffffffffffffffffffffffff16815260200190815260200160002054905092915050565b600033905090565b600073ffffffffffffffffffffffffffffffffffffffff168373ffffffffffffffffffffffffffffffffffffffff161415610887576040517f08c379a000000000000000000000000000000000000000000000000000000000815260040161087e90611044565b60405180910390fd5b600073ffffffffffffffffffffffffffffffffffffffff168273ffffffffffffffffffffffffffffffffffffffff1614156108f7576040517f08c379a00000000000000000000000000000000000000000000000000000000081526004016108ee90610fc4565b60405180910390fd5b80600160008573ffffffffffffffffffffffffffffffffffffffff1673ffffffffffffffffffffffffffffffffffffffff16815260200190815260200160002060008473ffffffffffffffffffffffffffffffffffffffff1673ffffffffffffffffffffffffffffffffffffffff168152602001908152602001600020819055508173ffffffffffffffffffffffffffffffffffffffff168373ffffffffffffffffffffffffffffffffffffffff167f8c5be1e5ebec7d5bd14f71427d1e84f3dd0314c0f7b2291e5b200ac8c7c3b925836040516109d59190611084565b60405180910390a3505050565b600073ffffffffffffffffffffffffffffffffffffffff168373ffffffffffffffffffffffffffffffffffffffff161415610a52576040517f08c379a0000000000000000000000000000000000000000000000000000000008152600401610a4990611024565b60405180910390fd5b600073ffffffffffffffffffffffffffffffffffffffff168273ffffffffffffffffffffffffffffffffffffffff161415610ac2576040517f08c379a0000000000000000000000000000000000000000000000000000000008152600401610ab990610fa4565b60405180910390fd5b610acd838383610c63565b60008060008573ffffffffffffffffffffffffffffffffffffffff1673ffffffffffffffffffffffffffffffffffffffff16815260200190815260200160002054905081811015610b53576040517f08c379a0000000000000000000000000000000000000000000000000000000008152600401610b4a90610fe4565b60405180910390fd5b8181036000808673ffffffffffffffffffffffffffffffffffffffff1673ffffffffffffffffffffffffffffffffffffffff16815260200190815260200160002081905550816000808573ffffffffffffffffffffffffffffffffffffffff1673ffffffffffffffffffffffffffffffffffffffff1681526020019081526020016000206000828254610be691906110d6565b925050819055508273ffffffffffffffffffffffffffffffffffffffff168473ffffffffffffffffffffffffffffffffffffffff167fddf252ad1be2c89b69c2b068fc378daa952ba7f163c4a11628f55a4df523b3ef84604051610c4a9190611084565b60405180910390a3610c5d848484610c68565b50505050565b505050565b505050565b600081359050610c7c81611490565b92915050565b600081519050610c91816114a7565b92915050565b600081359050610ca6816114be565b92915050565b600060208284031215610cbe57600080fd5b6000610ccc84828501610c6d565b91505092915050565b60008060408385031215610ce857600080fd5b6000610cf685828601610c6d565b9250506020610d0785828601610c6d565b9150509250929050565b600080600060608486031215610d2657600080fd5b6000610d3486828701610c6d565b9350506020610d4586828701610c6d565b9250506040610d5686828701610c97565b9150509250925092565b60008060408385031215610d7357600080fd5b6000610d8185828601610c6d565b9250506020610d9285828601610c97565b9150509250929050565b600060208284031215610dae57600080fd5b6000610dbc84828501610c82565b91505092915050565b610dce8161112c565b82525050565b610ddd8161113e565b82525050565b610dec81611181565b82525050565b6000610dfd826110ba565b610e0781856110c5565b9350610e17818560208601611193565b610e2081611256565b840191505092915050565b6000610e386023836110c5565b9150610e4382611267565b604082019050919050565b6000610e5b6022836110c5565b9150610e66826112b6565b604082019050919050565b6000610e7e6026836110c5565b9150610e8982611305565b604082019050919050565b6000610ea16028836110c5565b9150610eac82611354565b604082019050919050565b6000610ec46025836110c5565b9150610ecf826113a3565b604082019050919050565b6000610ee76024836110c5565b9150610ef2826113f2565b604082019050919050565b6000610f0a6025836110c5565b9150610f1582611441565b604082019050919050565b610f298161116a565b82525050565b610f3881611174565b82525050565b6000604082019050610f536000830185610dc5565b610f606020830184610de3565b9392505050565b6000602082019050610f7c6000830184610dd4565b92915050565b60006020820190508181036000830152610f9c8184610df2565b905092915050565b60006020820190508181036000830152610fbd81610e2b565b9050919050565b60006020820190508181036000830152610fdd81610e4e565b9050919050565b60006020820190508181036000830152610ffd81610e71565b9050919050565b6000602082019050818103600083015261101d81610e94565b9050919050565b6000602082019050818103600083015261103d81610eb7565b9050919050565b6000602082019050818103600083015261105d81610eda565b9050919050565b6000602082019050818103600083015261107d81610efd565b9050919050565b60006020820190506110996000830184610f20565b92915050565b60006020820190506110b46000830184610f2f565b92915050565b600081519050919050565b600082825260208201905092915050565b60006110e18261116a565b91506110ec8361116a565b9250827fffffffffffffffffffffffffffffffffffffffffffffffffffffffffffffffff03821115611121576111206111f8565b5b828201905092915050565b60006111378261114a565b9050919050565b60008115159050919050565b600073ffffffffffffffffffffffffffffffffffffffff82169050919050565b6000819050919050565b600060ff82169050919050565b600061118c8261116a565b9050919050565b60005b838110156111b1578082015181840152602081019050611196565b838111156111c0576000848401525b50505050565b600060028204905060018216806111de57607f821691505b602082108114156111f2576111f1611227565b5b50919050565b7f4e487b7100000000000000000000000000000000000000000000000000000000600052601160045260246000fd5b7f4e487b7100000000000000000000000000000000000000000000000000000000600052602260045260246000fd5b6000601f19601f8301169050919050565b7f45524332303a207472616e7366657220746f20746865207a65726f206164647260008201527f6573730000000000000000000000000000000000000000000000000000000000602082015250565b7f45524332303a20617070726f766520746f20746865207a65726f20616464726560008201527f7373000000000000000000000000000000000000000000000000000000000000602082015250565b7f45524332303a207472616e7366657220616d6f756e742065786365656473206260008201527f616c616e63650000000000000000000000000000000000000000000000000000602082015250565b7f45524332303a207472616e7366657220616d6f756e742065786365656473206160008201527f6c6c6f77616e6365000000000000000000000000000000000000000000000000602082015250565b7f45524332303a207472616e736665722066726f6d20746865207a65726f20616460008201527f6472657373000000000000000000000000000000000000000000000000000000602082015250565b7f45524332303a20617070726f76652066726f6d20746865207a65726f2061646460008201527f7265737300000000000000000000000000000000000000000000000000000000602082015250565b7f45524332303a2064656372656173656420616c6c6f77616e63652062656c6f7760008201527f207a65726f000000000000000000000000000000000000000000000000000000602082015250565b6114998161112c565b81146114a457600080fd5b50565b6114b08161113e565b81146114bb57600080fd5b50565b6114c78161116a565b81146114d257600080fd5b5056fea264697066735822122096db0eddfd4e73019301246f1d370cfc72ccf1088f8aa680d977643eb0fdf77a64736f6c63430008010033",
  "immutableReferences": {},
  "source": "// SPDX-License-Identifier: MIT\n\npragma solidity ^0.8.1;\n\nimport \"@openzeppelin/contracts/token/ERC20/ERC20.sol\";\n\n\ncontract BouncebackTestToken is ERC20 {\n\n    // mapping(address => uint256) private _balances;\n\n    constructor() ERC20(\"BouncebackTestToken\", \"BBTT\") {\n        _mint(msg.sender, 7000000 * 10 ** decimals());\n    \n    }\n    \n    function getAirdrop() public {\n        BouncebackTestToken token = BouncebackTestToken(0xf813b8B8C82626A2f61274e1c23c3DB746D70A11);\n    token.transfer(msg.sender, 100000000000000000000); //18 decimals token\n  }\n    \n}\n    \n\n\n    //  function _transfer(\n    //     address sender,\n    //     address recipient,\n    //     uint256 amount\n    // ) internal virtual {\n    //     require(sender != address(0), \"ERC20: transfer from the zero address\");\n    //     require(recipient != address(0), \"ERC20: transfer to the zero address\");\n\n    //     _beforeTokenTransfer(sender, recipient, amount);\n\n    //     uint256 senderBalance = _balances[sender];\n    //     require(senderBalance >= amount, \"ERC20: transfer amount exceeds balance\");\n    //     unchecked {\n    //         _balances[sender] = senderBalance - amount;\n    //     }\n    //     _balances[recipient] += amount;\n\n    //     emit Transfer(sender, recipient, amount);\n\n    //     _afterTokenTransfer(sender, recipient, amount);\n    // }\n\n    // function transfer() external {\n    //     BouncebackTestToken token = BouncebackTestToken(0xf813b8B8C82626A2f61274e1c23c3DB746D70A11);\n    //     token.transfer(msg.sender, 707);\n    // }\n\n  // function rewardUser() public {\n  //  BouncebackTestToken token = BouncebackTestToken(0xf813b8B8C82626A2f61274e1c23c3DB746D70A11);\n  //  token.transfer(msg.sender, 707); \n  // }\n\n\n//     function _transfer(address sender, address recipient, uint256 amount) internal virtual override {\n//     require(sender != address(0), \"ERC20: transfer from the zero address\");\n//     require(recipient != address(0), \"ERC20: transfer to the zero address\");\n//     _beforeTokenTransfer(sender, recipient, amount);\n//     _balances[sender] = _balances[sender].sub(amount);\n//     _balances[recipient] = _balances[recipient].add(amount);\n//     emit Transfer(sender, recipient, amount);\n//  }\n\n// function transfer(address recipient, uint256 amount) public virtual override returns (bool) {\n//         _transfer(_msgSender(), recipient, amount);\n//         return true;\n\n\n\n",
  "sourcePath": "/Users/alexisamoi/Documents/Bounce Back Foundation/testtoken/contracts/BouncebackTestToken.sol",
  "compiler": {
    "name": "solc",
    "version": "0.8.1+commit.df193b15.Emscripten.clang"
  },
  "schemaVersion": "3.3.4",
  "updatedAt": "2021-07-30T14:25:51.924Z",
  "networkType": "ethereum",
  "devdoc": {
    "kind": "dev",
    "methods": {
      "allowance(address,address)": {
        "details": "See {IERC20-allowance}."
      },
      "approve(address,uint256)": {
        "details": "See {IERC20-approve}. Requirements: - `spender` cannot be the zero address."
      },
      "balanceOf(address)": {
        "details": "See {IERC20-balanceOf}."
      },
      "decimals()": {
        "details": "Returns the number of decimals used to get its user representation. For example, if `decimals` equals `2`, a balance of `505` tokens should be displayed to a user as `5,05` (`505 / 10 ** 2`). Tokens usually opt for a value of 18, imitating the relationship between Ether and Wei. This is the value {ERC20} uses, unless this function is overridden; NOTE: This information is only used for _display_ purposes: it in no way affects any of the arithmetic of the contract, including {IERC20-balanceOf} and {IERC20-transfer}."
      },
      "decreaseAllowance(address,uint256)": {
        "details": "Atomically decreases the allowance granted to `spender` by the caller. This is an alternative to {approve} that can be used as a mitigation for problems described in {IERC20-approve}. Emits an {Approval} event indicating the updated allowance. Requirements: - `spender` cannot be the zero address. - `spender` must have allowance for the caller of at least `subtractedValue`."
      },
      "increaseAllowance(address,uint256)": {
        "details": "Atomically increases the allowance granted to `spender` by the caller. This is an alternative to {approve} that can be used as a mitigation for problems described in {IERC20-approve}. Emits an {Approval} event indicating the updated allowance. Requirements: - `spender` cannot be the zero address."
      },
      "name()": {
        "details": "Returns the name of the token."
      },
      "symbol()": {
        "details": "Returns the symbol of the token, usually a shorter version of the name."
      },
      "totalSupply()": {
        "details": "See {IERC20-totalSupply}."
      },
      "transfer(address,uint256)": {
        "details": "See {IERC20-transfer}. Requirements: - `recipient` cannot be the zero address. - the caller must have a balance of at least `amount`."
      },
      "transferFrom(address,address,uint256)": {
        "details": "See {IERC20-transferFrom}. Emits an {Approval} event indicating the updated allowance. This is not required by the EIP. See the note at the beginning of {ERC20}. Requirements: - `sender` and `recipient` cannot be the zero address. - `sender` must have a balance of at least `amount`. - the caller must have allowance for ``sender``'s tokens of at least `amount`."
      }
    },
    "version": 1
  },
  "userdoc": {
    "kind": "user",
    "methods": {},
    "version": 1
  }
}