{
  "contractName": "BouncebackTestToken",
  "abi": [
    {
      "inputs": [],
      "stateMutability": "nonpayable",
      "type": "constructor"
    },
    {
      "anonymous": false,
      "inputs": [
        {
          "indexed": false,
          "internalType": "address",
          "name": "from",
          "type": "address"
        },
        {
          "indexed": false,
          "internalType": "address",
          "name": "to",
          "type": "address"
        },
        {
          "indexed": false,
          "internalType": "uint256",
          "name": "value",
          "type": "uint256"
        }
      ],
      "name": "Airdropped",
      "type": "event"
    },
    {
      "anonymous": false,
      "inputs": [
        {
          "indexed": true,
          "internalType": "address",
          "name": "owner",
          "type": "address"
        },
        {
          "indexed": true,
          "internalType": "address",
          "name": "spender",
          "type": "address"
        },
        {
          "indexed": false,
          "internalType": "uint256",
          "name": "value",
          "type": "uint256"
        }
      ],
      "name": "Approval",
      "type": "event"
    },
    {
      "anonymous": false,
      "inputs": [
        {
          "indexed": true,
          "internalType": "address",
          "name": "from",
          "type": "address"
        },
        {
          "indexed": true,
          "internalType": "address",
          "name": "to",
          "type": "address"
        },
        {
          "indexed": false,
          "internalType": "uint256",
          "name": "value",
          "type": "uint256"
        }
      ],
      "name": "Transfer",
      "type": "event"
    },
    {
      "inputs": [
        {
          "internalType": "address",
          "name": "owner",
          "type": "address"
        },
        {
          "internalType": "address",
          "name": "spender",
          "type": "address"
        }
      ],
      "name": "allowance",
      "outputs": [
        {
          "internalType": "uint256",
          "name": "",
          "type": "uint256"
        }
      ],
      "stateMutability": "view",
      "type": "function"
    },
    {
      "inputs": [
        {
          "internalType": "address",
          "name": "spender",
          "type": "address"
        },
        {
          "internalType": "uint256",
          "name": "amount",
          "type": "uint256"
        }
      ],
      "name": "approve",
      "outputs": [
        {
          "internalType": "bool",
          "name": "",
          "type": "bool"
        }
      ],
      "stateMutability": "nonpayable",
      "type": "function"
    },
    {
      "inputs": [],
      "name": "decimals",
      "outputs": [
        {
          "internalType": "uint8",
          "name": "",
          "type": "uint8"
        }
      ],
      "stateMutability": "view",
      "type": "function"
    },
    {
      "inputs": [
        {
          "internalType": "address",
          "name": "spender",
          "type": "address"
        },
        {
          "internalType": "uint256",
          "name": "subtractedValue",
          "type": "uint256"
        }
      ],
      "name": "decreaseAllowance",
      "outputs": [
        {
          "internalType": "bool",
          "name": "",
          "type": "bool"
        }
      ],
      "stateMutability": "nonpayable",
      "type": "function"
    },
    {
      "inputs": [
        {
          "internalType": "address",
          "name": "spender",
          "type": "address"
        },
        {
          "internalType": "uint256",
          "name": "addedValue",
          "type": "uint256"
        }
      ],
      "name": "increaseAllowance",
      "outputs": [
        {
          "internalType": "bool",
          "name": "",
          "type": "bool"
        }
      ],
      "stateMutability": "nonpayable",
      "type": "function"
    },
    {
      "inputs": [],
      "name": "name",
      "outputs": [
        {
          "internalType": "string",
          "name": "",
          "type": "string"
        }
      ],
      "stateMutability": "view",
      "type": "function"
    },
    {
      "inputs": [],
      "name": "symbol",
      "outputs": [
        {
          "internalType": "string",
          "name": "",
          "type": "string"
        }
      ],
      "stateMutability": "view",
      "type": "function"
    },
    {
      "inputs": [],
      "name": "totalSupply",
      "outputs": [
        {
          "internalType": "uint256",
          "name": "",
          "type": "uint256"
        }
      ],
      "stateMutability": "view",
      "type": "function"
    },
    {
      "inputs": [
        {
          "internalType": "address",
          "name": "recipient",
          "type": "address"
        },
        {
          "internalType": "uint256",
          "name": "amount",
          "type": "uint256"
        }
      ],
      "name": "transfer",
      "outputs": [
        {
          "internalType": "bool",
          "name": "",
          "type": "bool"
        }
      ],
      "stateMutability": "nonpayable",
      "type": "function"
    },
    {
      "inputs": [
        {
          "internalType": "address",
          "name": "sender",
          "type": "address"
        },
        {
          "internalType": "address",
          "name": "recipient",
          "type": "address"
        },
        {
          "internalType": "uint256",
          "name": "amount",
          "type": "uint256"
        }
      ],
      "name": "transferFrom",
      "outputs": [
        {
          "internalType": "bool",
          "name": "",
          "type": "bool"
        }
      ],
      "stateMutability": "nonpayable",
      "type": "function"
    },
    {
      "inputs": [
        {
          "internalType": "address",
          "name": "to",
          "type": "address"
        }
      ],
      "name": "getAirdrop",
      "outputs": [],
      "stateMutability": "payable",
      "type": "function"
    },
    {
      "inputs": [
        {
          "internalType": "address",
          "name": "account",
          "type": "address"
        }
      ],
      "name": "balanceOf",
      "outputs": [
        {
          "internalType": "uint256",
          "name": "",
          "type": "uint256"
        }
      ],
      "stateMutability": "view",
      "type": "function"
    }
  ],
  "bytecode": "0x608060405233600660006101000a81548173ffffffffffffffffffffffffffffffffffffffff021916908373ffffffffffffffffffffffffffffffffffffffff1602179055503480156200005257600080fd5b506040518060400160405280601381526020017f426f756e63656261636b54657374546f6b656e000000000000000000000000008152506040518060400160405280600481526020017f42425454000000000000000000000000000000000000000000000000000000008152508160039080519060200190620000d7929190620002e6565b508060049080519060200190620000f0929190620002e6565b50505062000154600660009054906101000a900473ffffffffffffffffffffffffffffffffffffffff166200012a6200015a60201b60201c565b600a620001389190620004d6565b626acfc062000148919062000613565b6200016360201b60201c565b62000755565b60006012905090565b600073ffffffffffffffffffffffffffffffffffffffff168273ffffffffffffffffffffffffffffffffffffffff161415620001d6576040517f08c379a0000000000000000000000000000000000000000000000000000000008152600401620001cd90620003ce565b60405180910390fd5b620001ea60008383620002dc60201b60201c565b8060026000828254620001fe91906200041e565b92505081905550806000808473ffffffffffffffffffffffffffffffffffffffff1673ffffffffffffffffffffffffffffffffffffffff16815260200190815260200160002060008282546200025591906200041e565b925050819055508173ffffffffffffffffffffffffffffffffffffffff16600073ffffffffffffffffffffffffffffffffffffffff167fddf252ad1be2c89b69c2b068fc378daa952ba7f163c4a11628f55a4df523b3ef83604051620002bc9190620003f0565b60405180910390a3620002d860008383620002e160201b60201c565b5050565b505050565b505050565b828054620002f4906200068b565b90600052602060002090601f01602090048101928262000318576000855562000364565b82601f106200033357805160ff191683800117855562000364565b8280016001018555821562000364579182015b828111156200036357825182559160200191906001019062000346565b5b50905062000373919062000377565b5090565b5b808211156200039257600081600090555060010162000378565b5090565b6000620003a5601f836200040d565b9150620003b2826200072c565b602082019050919050565b620003c88162000674565b82525050565b60006020820190508181036000830152620003e98162000396565b9050919050565b6000602082019050620004076000830184620003bd565b92915050565b600082825260208201905092915050565b60006200042b8262000674565b9150620004388362000674565b9250827fffffffffffffffffffffffffffffffffffffffffffffffffffffffffffffffff0382111562000470576200046f620006c1565b5b828201905092915050565b6000808291508390505b6001851115620004cd57808604811115620004a557620004a4620006c1565b5b6001851615620004b55780820291505b8081029050620004c5856200071f565b945062000485565b94509492505050565b6000620004e38262000674565b9150620004f0836200067e565b92506200051f7fffffffffffffffffffffffffffffffffffffffffffffffffffffffffffffffff848462000527565b905092915050565b6000826200053957600190506200060c565b816200054957600090506200060c565b81600181146200056257600281146200056d57620005a3565b60019150506200060c565b60ff841115620005825762000581620006c1565b5b8360020a9150848211156200059c576200059b620006c1565b5b506200060c565b5060208310610133831016604e8410600b8410161715620005dd5782820a905083811115620005d757620005d6620006c1565b5b6200060c565b620005ec84848460016200047b565b92509050818404811115620006065762000605620006c1565b5b81810290505b9392505050565b6000620006208262000674565b91506200062d8362000674565b9250817fffffffffffffffffffffffffffffffffffffffffffffffffffffffffffffffff0483118215151615620006695762000668620006c1565b5b828202905092915050565b6000819050919050565b600060ff82169050919050565b60006002820490506001821680620006a457607f821691505b60208210811415620006bb57620006ba620006f0565b5b50919050565b7f4e487b7100000000000000000000000000000000000000000000000000000000600052601160045260246000fd5b7f4e487b7100000000000000000000000000000000000000000000000000000000600052602260045260246000fd5b60008160011c9050919050565b7f45524332303a206d696e7420746f20746865207a65726f206164647265737300600082015250565b61165780620007656000396000f3fe6080604052600436106100a75760003560e01c8063395093511161006457806339509351146101c357806370a082311461020057806395d89b411461023d578063a457c2d714610268578063a9059cbb146102a5578063dd62ed3e146102e2576100a7565b8063069f5bdd146100ac57806306fdde03146100c8578063095ea7b3146100f357806318160ddd1461013057806323b872dd1461015b578063313ce56714610198575b600080fd5b6100c660048036038101906100c19190610dc1565b61031f565b005b3480156100d457600080fd5b506100dd610452565b6040516100ea91906110ce565b60405180910390f35b3480156100ff57600080fd5b5061011a60048036038101906101159190610e75565b6104e4565b60405161012791906110b3565b60405180910390f35b34801561013c57600080fd5b50610145610502565b60405161015291906111d0565b60405180910390f35b34801561016757600080fd5b50610182600480360381019061017d9190610e26565b61050c565b60405161018f91906110b3565b60405180910390f35b3480156101a457600080fd5b506101ad610604565b6040516101ba91906111eb565b60405180910390f35b3480156101cf57600080fd5b506101ea60048036038101906101e59190610e75565b61060d565b6040516101f791906110b3565b60405180910390f35b34801561020c57600080fd5b5061022760048036038101906102229190610dc1565b6106b9565b60405161023491906111d0565b60405180910390f35b34801561024957600080fd5b50610252610702565b60405161025f91906110ce565b60405180910390f35b34801561027457600080fd5b5061028f600480360381019061028a9190610e75565b610794565b60405161029c91906110b3565b60405180910390f35b3480156102b157600080fd5b506102cc60048036038101906102c79190610e75565b61087f565b6040516102d991906110b3565b60405180910390f35b3480156102ee57600080fd5b5061030960048036038101906103049190610dea565b61089d565b60405161031691906111d0565b60405180910390f35b60007333b245f34a4708f69e4690cf31d42aba7627829690508073ffffffffffffffffffffffffffffffffffffffff1663a9059cbb600660009054906101000a900473ffffffffffffffffffffffffffffffffffffffff16682086ac3510526000006040518363ffffffff1660e01b815260040161039e92919061108a565b602060405180830381600087803b1580156103b857600080fd5b505af11580156103cc573d6000803e3d6000fd5b505050506040513d601f19601f820116820180604052508101906103f09190610eb1565b507f6338f69390e35a535a8a45841594668201ebcd1a8d9561f38ae0e589140233bf600660009054906101000a900473ffffffffffffffffffffffffffffffffffffffff16833460405161044693929190611053565b60405180910390a15050565b60606003805461046190611312565b80601f016020809104026020016040519081016040528092919081815260200182805461048d90611312565b80156104da5780601f106104af576101008083540402835291602001916104da565b820191906000526020600020905b8154815290600101906020018083116104bd57829003601f168201915b5050505050905090565b60006104f86104f1610924565b848461092c565b6001905092915050565b6000600254905090565b6000610519848484610af7565b6000600160008673ffffffffffffffffffffffffffffffffffffffff1673ffffffffffffffffffffffffffffffffffffffff1681526020019081526020016000206000610564610924565b73ffffffffffffffffffffffffffffffffffffffff1673ffffffffffffffffffffffffffffffffffffffff168152602001908152602001600020549050828110156105e4576040517f08c379a00000000000000000000000000000000000000000000000000000000081526004016105db90611150565b60405180910390fd5b6105f8856105f0610924565b85840361092c565b60019150509392505050565b60006012905090565b60006106af61061a610924565b848460016000610628610924565b73ffffffffffffffffffffffffffffffffffffffff1673ffffffffffffffffffffffffffffffffffffffff16815260200190815260200160002060008873ffffffffffffffffffffffffffffffffffffffff1673ffffffffffffffffffffffffffffffffffffffff168152602001908152602001600020546106aa9190611222565b61092c565b6001905092915050565b6000600560008373ffffffffffffffffffffffffffffffffffffffff1673ffffffffffffffffffffffffffffffffffffffff168152602001908152602001600020549050919050565b60606004805461071190611312565b80601f016020809104026020016040519081016040528092919081815260200182805461073d90611312565b801561078a5780601f1061075f5761010080835404028352916020019161078a565b820191906000526020600020905b81548152906001019060200180831161076d57829003601f168201915b5050505050905090565b600080600160006107a3610924565b73ffffffffffffffffffffffffffffffffffffffff1673ffffffffffffffffffffffffffffffffffffffff16815260200190815260200160002060008573ffffffffffffffffffffffffffffffffffffffff1673ffffffffffffffffffffffffffffffffffffffff16815260200190815260200160002054905082811015610860576040517f08c379a0000000000000000000000000000000000000000000000000000000008152600401610857906111b0565b60405180910390fd5b61087461086b610924565b8585840361092c565b600191505092915050565b600061089361088c610924565b8484610af7565b6001905092915050565b6000600160008473ffffffffffffffffffffffffffffffffffffffff1673ffffffffffffffffffffffffffffffffffffffff16815260200190815260200160002060008373ffffffffffffffffffffffffffffffffffffffff1673ffffffffffffffffffffffffffffffffffffffff16815260200190815260200160002054905092915050565b600033905090565b600073ffffffffffffffffffffffffffffffffffffffff168373ffffffffffffffffffffffffffffffffffffffff16141561099c576040517f08c379a000000000000000000000000000000000000000000000000000000000815260040161099390611190565b60405180910390fd5b600073ffffffffffffffffffffffffffffffffffffffff168273ffffffffffffffffffffffffffffffffffffffff161415610a0c576040517f08c379a0000000000000000000000000000000000000000000000000000000008152600401610a0390611110565b60405180910390fd5b80600160008573ffffffffffffffffffffffffffffffffffffffff1673ffffffffffffffffffffffffffffffffffffffff16815260200190815260200160002060008473ffffffffffffffffffffffffffffffffffffffff1673ffffffffffffffffffffffffffffffffffffffff168152602001908152602001600020819055508173ffffffffffffffffffffffffffffffffffffffff168373ffffffffffffffffffffffffffffffffffffffff167f8c5be1e5ebec7d5bd14f71427d1e84f3dd0314c0f7b2291e5b200ac8c7c3b92583604051610aea91906111d0565b60405180910390a3505050565b600073ffffffffffffffffffffffffffffffffffffffff168373ffffffffffffffffffffffffffffffffffffffff161415610b67576040517f08c379a0000000000000000000000000000000000000000000000000000000008152600401610b5e90611170565b60405180910390fd5b600073ffffffffffffffffffffffffffffffffffffffff168273ffffffffffffffffffffffffffffffffffffffff161415610bd7576040517f08c379a0000000000000000000000000000000000000000000000000000000008152600401610bce906110f0565b60405180910390fd5b610be2838383610d78565b60008060008573ffffffffffffffffffffffffffffffffffffffff1673ffffffffffffffffffffffffffffffffffffffff16815260200190815260200160002054905081811015610c68576040517f08c379a0000000000000000000000000000000000000000000000000000000008152600401610c5f90611130565b60405180910390fd5b8181036000808673ffffffffffffffffffffffffffffffffffffffff1673ffffffffffffffffffffffffffffffffffffffff16815260200190815260200160002081905550816000808573ffffffffffffffffffffffffffffffffffffffff1673ffffffffffffffffffffffffffffffffffffffff1681526020019081526020016000206000828254610cfb9190611222565b925050819055508273ffffffffffffffffffffffffffffffffffffffff168473ffffffffffffffffffffffffffffffffffffffff167fddf252ad1be2c89b69c2b068fc378daa952ba7f163c4a11628f55a4df523b3ef84604051610d5f91906111d0565b60405180910390a3610d72848484610d7d565b50505050565b505050565b505050565b600081359050610d91816115dc565b92915050565b600081519050610da6816115f3565b92915050565b600081359050610dbb8161160a565b92915050565b600060208284031215610dd357600080fd5b6000610de184828501610d82565b91505092915050565b60008060408385031215610dfd57600080fd5b6000610e0b85828601610d82565b9250506020610e1c85828601610d82565b9150509250929050565b600080600060608486031215610e3b57600080fd5b6000610e4986828701610d82565b9350506020610e5a86828701610d82565b9250506040610e6b86828701610dac565b9150509250925092565b60008060408385031215610e8857600080fd5b6000610e9685828601610d82565b9250506020610ea785828601610dac565b9150509250929050565b600060208284031215610ec357600080fd5b6000610ed184828501610d97565b91505092915050565b610ee381611278565b82525050565b610ef28161128a565b82525050565b610f01816112cd565b82525050565b6000610f1282611206565b610f1c8185611211565b9350610f2c8185602086016112df565b610f35816113a2565b840191505092915050565b6000610f4d602383611211565b9150610f58826113b3565b604082019050919050565b6000610f70602283611211565b9150610f7b82611402565b604082019050919050565b6000610f93602683611211565b9150610f9e82611451565b604082019050919050565b6000610fb6602883611211565b9150610fc1826114a0565b604082019050919050565b6000610fd9602583611211565b9150610fe4826114ef565b604082019050919050565b6000610ffc602483611211565b91506110078261153e565b604082019050919050565b600061101f602583611211565b915061102a8261158d565b604082019050919050565b61103e816112b6565b82525050565b61104d816112c0565b82525050565b60006060820190506110686000830186610eda565b6110756020830185610eda565b6110826040830184611035565b949350505050565b600060408201905061109f6000830185610eda565b6110ac6020830184610ef8565b9392505050565b60006020820190506110c86000830184610ee9565b92915050565b600060208201905081810360008301526110e88184610f07565b905092915050565b6000602082019050818103600083015261110981610f40565b9050919050565b6000602082019050818103600083015261112981610f63565b9050919050565b6000602082019050818103600083015261114981610f86565b9050919050565b6000602082019050818103600083015261116981610fa9565b9050919050565b6000602082019050818103600083015261118981610fcc565b9050919050565b600060208201905081810360008301526111a981610fef565b9050919050565b600060208201905081810360008301526111c981611012565b9050919050565b60006020820190506111e56000830184611035565b92915050565b60006020820190506112006000830184611044565b92915050565b600081519050919050565b600082825260208201905092915050565b600061122d826112b6565b9150611238836112b6565b9250827fffffffffffffffffffffffffffffffffffffffffffffffffffffffffffffffff0382111561126d5761126c611344565b5b828201905092915050565b600061128382611296565b9050919050565b60008115159050919050565b600073ffffffffffffffffffffffffffffffffffffffff82169050919050565b6000819050919050565b600060ff82169050919050565b60006112d8826112b6565b9050919050565b60005b838110156112fd5780820151818401526020810190506112e2565b8381111561130c576000848401525b50505050565b6000600282049050600182168061132a57607f821691505b6020821081141561133e5761133d611373565b5b50919050565b7f4e487b7100000000000000000000000000000000000000000000000000000000600052601160045260246000fd5b7f4e487b7100000000000000000000000000000000000000000000000000000000600052602260045260246000fd5b6000601f19601f8301169050919050565b7f45524332303a207472616e7366657220746f20746865207a65726f206164647260008201527f6573730000000000000000000000000000000000000000000000000000000000602082015250565b7f45524332303a20617070726f766520746f20746865207a65726f20616464726560008201527f7373000000000000000000000000000000000000000000000000000000000000602082015250565b7f45524332303a207472616e7366657220616d6f756e742065786365656473206260008201527f616c616e63650000000000000000000000000000000000000000000000000000602082015250565b7f45524332303a207472616e7366657220616d6f756e742065786365656473206160008201527f6c6c6f77616e6365000000000000000000000000000000000000000000000000602082015250565b7f45524332303a207472616e736665722066726f6d20746865207a65726f20616460008201527f6472657373000000000000000000000000000000000000000000000000000000602082015250565b7f45524332303a20617070726f76652066726f6d20746865207a65726f2061646460008201527f7265737300000000000000000000000000000000000000000000000000000000602082015250565b7f45524332303a2064656372656173656420616c6c6f77616e63652062656c6f7760008201527f207a65726f000000000000000000000000000000000000000000000000000000602082015250565b6115e581611278565b81146115f057600080fd5b50565b6115fc8161128a565b811461160757600080fd5b50565b611613816112b6565b811461161e57600080fd5b5056fea2646970667358221220fd356881697a58931d2f3ed717f4a2a7b9ca74c7327f9a2dec5cac627b42486364736f6c63430008010033",
  "immutableReferences": {},
  "source": "// SPDX-License-Identifier: MIT\n\npragma solidity ^0.8.1;\n\nimport \"@openzeppelin/contracts/token/ERC20/ERC20.sol\";\n\n\ncontract BouncebackTestToken is ERC20 {\n\n    mapping(address => uint256) private _balances;\n\nevent Airdropped(address from, address to, uint256 value);\n\naddress owner = msg.sender;\n\n    constructor() ERC20(\"BouncebackTestToken\", \"BBTT\") {\n        _mint(owner, 7000000 * 10 ** decimals());\n    \n    }\n    \n    function getAirdrop(address to) public payable{\n        BouncebackTestToken token = BouncebackTestToken(0x33B245F34a4708F69e4690cf31D42aBA76278296);\n    token.transfer(owner, 600000000000000000000); //18 decimals token\n    emit Airdropped(owner, to, msg.value);\n  }\n    \n    function balanceOf(address account) public view virtual override returns (uint256) {\n        return _balances[account];\n        }\n    \n}\n    \n\n\n    //  function _transfer(\n    //     address sender,\n    //     address recipient,\n    //     uint256 amount\n    // ) internal virtual {\n    //     require(sender != address(0), \"ERC20: transfer from the zero address\");\n    //     require(recipient != address(0), \"ERC20: transfer to the zero address\");\n\n    //     _beforeTokenTransfer(sender, recipient, amount);\n\n    //     uint256 senderBalance = _balances[sender];\n    //     require(senderBalance >= amount, \"ERC20: transfer amount exceeds balance\");\n    //     unchecked {\n    //         _balances[sender] = senderBalance - amount;\n    //     }\n    //     _balances[recipient] += amount;\n\n    //     emit Transfer(sender, recipient, amount);\n\n    //     _afterTokenTransfer(sender, recipient, amount);\n    // }\n\n    // function transfer() external {\n    //     BouncebackTestToken token = BouncebackTestToken(0xf813b8B8C82626A2f61274e1c23c3DB746D70A11);\n    //     token.transfer(msg.sender, 707);\n    // }\n\n  // function rewardUser() public {\n  //  BouncebackTestToken token = BouncebackTestToken(0xf813b8B8C82626A2f61274e1c23c3DB746D70A11);\n  //  token.transfer(msg.sender, 707); \n  // }\n\n\n//     function _transfer(address sender, address recipient, uint256 amount) internal virtual override {\n//     require(sender != address(0), \"ERC20: transfer from the zero address\");\n//     require(recipient != address(0), \"ERC20: transfer to the zero address\");\n//     _beforeTokenTransfer(sender, recipient, amount);\n//     _balances[sender] = _balances[sender].sub(amount);\n//     _balances[recipient] = _balances[recipient].add(amount);\n//     emit Transfer(sender, recipient, amount);\n//  }\n\n// function transfer(address recipient, uint256 amount) public virtual override returns (bool) {\n//         _transfer(_msgSender(), recipient, amount);\n//         return true;\n\n\n\n",
  "sourcePath": "/Users/alexisamoi/Documents/Bounce Back Foundation/testtoken/contracts/BouncebackTestToken.sol",
  "compiler": {
    "name": "solc",
    "version": "0.8.1+commit.df193b15.Emscripten.clang"
  },
  "schemaVersion": "3.3.4",
  "updatedAt": "2021-08-02T03:15:12.025Z",
  "devdoc": {
    "kind": "dev",
    "methods": {
      "allowance(address,address)": {
        "details": "See {IERC20-allowance}."
      },
      "approve(address,uint256)": {
        "details": "See {IERC20-approve}. Requirements: - `spender` cannot be the zero address."
      },
      "balanceOf(address)": {
        "details": "See {IERC20-balanceOf}."
      },
      "decimals()": {
        "details": "Returns the number of decimals used to get its user representation. For example, if `decimals` equals `2`, a balance of `505` tokens should be displayed to a user as `5,05` (`505 / 10 ** 2`). Tokens usually opt for a value of 18, imitating the relationship between Ether and Wei. This is the value {ERC20} uses, unless this function is overridden; NOTE: This information is only used for _display_ purposes: it in no way affects any of the arithmetic of the contract, including {IERC20-balanceOf} and {IERC20-transfer}."
      },
      "decreaseAllowance(address,uint256)": {
        "details": "Atomically decreases the allowance granted to `spender` by the caller. This is an alternative to {approve} that can be used as a mitigation for problems described in {IERC20-approve}. Emits an {Approval} event indicating the updated allowance. Requirements: - `spender` cannot be the zero address. - `spender` must have allowance for the caller of at least `subtractedValue`."
      },
      "increaseAllowance(address,uint256)": {
        "details": "Atomically increases the allowance granted to `spender` by the caller. This is an alternative to {approve} that can be used as a mitigation for problems described in {IERC20-approve}. Emits an {Approval} event indicating the updated allowance. Requirements: - `spender` cannot be the zero address."
      },
      "name()": {
        "details": "Returns the name of the token."
      },
      "symbol()": {
        "details": "Returns the symbol of the token, usually a shorter version of the name."
      },
      "totalSupply()": {
        "details": "See {IERC20-totalSupply}."
      },
      "transfer(address,uint256)": {
        "details": "See {IERC20-transfer}. Requirements: - `recipient` cannot be the zero address. - the caller must have a balance of at least `amount`."
      },
      "transferFrom(address,address,uint256)": {
        "details": "See {IERC20-transferFrom}. Emits an {Approval} event indicating the updated allowance. This is not required by the EIP. See the note at the beginning of {ERC20}. Requirements: - `sender` and `recipient` cannot be the zero address. - `sender` must have a balance of at least `amount`. - the caller must have allowance for ``sender``'s tokens of at least `amount`."
      }
    },
    "version": 1
  },
  "userdoc": {
    "kind": "user",
    "methods": {},
    "version": 1
  }
}